:1000000000500020A92E00001D300000A132000089
:10001000253000002D3000003530000000000000C9
:100020000000000000000000000000003D30000063
:100030004530000000000000412100004D3000006C
:10004000553000005D300000653000006D3000006C
:10005000F11C0000753000007D3000008B30000086
:1000600093300000011D00009B3000009D30000017
:100070009F300000A7300000B7300000BF30000004
:10008000C7300000CF300000D7300000DF30000064
:10009000E7300000EF300000F7300000FF300000D4
:1000A000073100000F310000173100001F31000040
:1000B000273100002F310000373100003F310000B0
:1000C000473100004F3100000A4B1A78FF2AD0B2A6
:1000D0000FD018781A780849D2B28A5CC0B2D2B26E
:1000E0001A701B78FF2BDAB204BF044B1A70FF237F
:1000F0000B547047A0080020A1080020AC08002085
:100100000021064B9A6922EA00029A6119611A6974
:10011000002AFBD15A69104358617047001004400F
:1001200030B500234FF400504FF480444FF4801555
:10013000094A012BD9B208D0022909D009B9C2F85D
:10014000905001330A2BF4D130BDC2F89000F8E78B
:10015000C2F89040F5E700BF0020024030B5002310
:100160004FF400504FF480444FF48015094A012B9E
:10017000D9B208D0022909D009B9C2F8A050013378
:100180000A2BF4D130BDC2F8A000F8E7C2F8A040B5
:10019000F5E700BF00200240F8B500244FF4804688
:1001A0004FF480170E4D0134202C01D10020F8BDF2
:1001B0000E2C0AD0142C0DD00D2CF4D102F0C1FE5F
:1001C0004FF40053C5F8A030EDE702F0C1FEC5F8CA
:1001D000A060E8E702F0AEFEC5F8A070E3E700BF5C
:1001E000002002400346084801380CD05A8802F427
:1001F0004062B2F5806FF7D1588800F44060A0F5F6
:10020000806358425841704721A1070008B502F0A9
:1002100025FD400C40EAC1300123EFF3108183F348
:100220001088064B1A68186081F31088824281BFDB
:10023000034A136803F10063136008BD180200202D
:100240004406002008B5FFF7E1FF024B1B6803EBF3
:10025000501008BD4406002038B50123EFF3108587
:1002600083F310880A4CE36AFFF7D0FF094B0A4A70
:100270001B68126803301344C21A002AD8BF1846FC
:10028000064B18604000A06185F3108838BD00BFA0
:100290000020094024020020280200202002002023
:1002A00030B5C37AEBB90123EFF3108183F31088E3
:1002B0000C4A136833B90361536843611860103006
:1002C00050600CE0857A9C7AA54201D31B69F1E766
:1002D0005A69C0E904325A6910601030586181F3DC
:1002E000108830BDFC08002070B5114D1822002187
:1002F000284603F0A6F80F4B0024EB60FF23AB72F7
:100300000D4B0E4A1E460134A4B2402C43F8042B78
:10031000F9D1234600210A4A0A4802F07DFFC5E9C7
:10032000000603482C81FFF7BBFF002070BD00BF13
:10033000000200202E420000EC040020EFBEADDEE3
:10034000EC0500200D070000F8B54FF080560124A1
:10035000D6F88431154F232102201B6898473C6052
:10036000EFF3108384F310880025114A156083F39E
:100370001088FFF771FF4FF480720E4B14205C6001
:100380005A604FF480325A60C7F880421A6822F4EB
:10039000E02242F480321A601A6822F470621A6015
:1003A000D6F8B0311B6998472846F8BD00002443B1
:1003B0001802002000200940F7B5054601F084FD31
:1003C0001A4EC0F53F74376803346400C7B1142176
:1003D0003B46174A1748009502F04AFC154803F0BF
:1003E00043F88442014608D3B4F5BF7F05D91148CC
:1003F00001F090FD002333600AE033680133FAE72F
:1004000094B10D4C207828B1294601F06DFD27707C
:1004100003B0F0BD0A2D05D1284603B0BDE8F04079
:1004200002F0F7BE2570F3E70123E4E72C02002079
:1004300033420000AB060020BF06002038B5012380
:10044000EFF3108483F3108817490B5CFF2B25D141
:10045000164B1A78904221D0154A1578FF2D17BFF8
:100460001A781070D2B288540022187084F3108861
:100470009AB90123EFF3108483F310880D4BD97AD6
:1004800049B1DA72D3E9042152B151615B6909487B
:100490001A60FFF705FF84F3108838BD0522E5E7F1
:1004A00005484160F2E700BFA1080020AC08002029
:1004B000A0080020300200200409002038B5FFF712
:1004C000C1FE184D184C296822688A182CBF0123D8
:1004D000002381421ED80BB990421FD2131AB3F1E8
:1004E000806F1BD903F17C4323604FF0806300F1E0
:1004F00080622A600D4A5B015360137B400123F048
:10050000030343F00103106013730120BDE838407A
:10051000FFF794BF13B19042E0D300232A6000227A
:100520002260E7E7480600203C060020EC0500209A
:1005300038B504460D46FFF785FE084A210102EB57
:10054000041350501A7B5D6022F0030242F0010256
:100550001A73BDE8384002F031BD00BFFC05002031
:1005600038B54FF08054D4F8A03180201B689847EC
:10057000D4F8A03110201B689847224A136823F052
:10058000030343F001031360536823F4C05343F49F
:100590000063536001221C4B5A601C4A1388591C8B
:1005A00011805BB9D4F8B83104205B699847D4F85E
:1005B000B83104205B6B98470128F8D103234FF032
:1005C0008054134D4FF4A0602B63D4F8B831DB692D
:1005D0009847D4F8B8314FF4A0605B6A9847D4F8D4
:1005E000B8314FF4A060DB6A98470122094B9A6248
:1005F000AB6A9B07FCD54FF480710020FFF798FF92
:10060000002038BD0010094000002443A00600204F
:1006100000200840002008602DE9F84307464FF00D
:10062000030802F027FC4FF00A0902F0BAFC02F0BE
:10063000B8FC02F0B6FC02F0A6FC02F0A4FC02F04A
:10064000A2FC02F0AEFC02F0ACFC02F0AAFC4FF4FB
:10065000C86002F08AFCBFB142F210731C46A74288
:10066000B3FBF9F3FAD33D46B5FBF4F604FB16559C
:10067000B4FBF9F4ADB2A4B2B6B29EB94FF4617056
:1006800002F073FC002DEFD14FF4C86002F06DFC56
:10069000B8F10108C9D102F0E4FD0122054BC3F80D
:1006A000FC20FEE702F06FFC4FF4C87002F05DFC26
:1006B000013EE2E70000204310B502F0C5FD10B195
:1006C000D620FFF7A9FF0123EFF3108483F31088EE
:1006D0000A4B0B4A1B68126893420CD05968094AAE
:1006E0000868904205D00848DA6802F0D7FA8D20F1
:1006F000E7E701F01DFD84F3108810BD4C060020D3
:10070000FC080020EFBEADDE3F42000083B5DFF8FD
:1007100028828A4CFFF7D0FF0126EFF3108786F37B
:100720001088874BD8F800201B689A4240F0E3807D
:10073000844B1B78002B00F0DE80834BDFF80CA28B
:100740001B78022B34BF07250325FFF75FFD804B85
:100750009AF800901A68121A052ACCBF07230323BF
:100760001D40B9F1000F1FD1042001F0AFFE023887
:10077000B04225D803234FF04052494675480093B4
:100780001C2302F072FD09234FF4007249467148A0
:10079000009602F06AFD704A8AF80060137B23F02D
:1007A0000303137302F00AFC07232B40032B00F012
:1007B000A580072B0CD0012B40F09B8030BF98E028
:1007C000664B1B7813B17B20FFF726FF0323ECE772
:1007D0000025634B0120DD6001F078FE012801D186
:1007E00002F044F94FF080565E4B0120C3F80052EE
:1007F0005D4BDFF87891DB6AD6F8B8315B6B9847D0
:10080000D6F8B8314FF0805601285B6B4FF00200EC
:100810000CBF212520259847D6F8B83101285B6BFD
:100820004FF0040008BF45F002059847D6F8B831EC
:10083000012808BF45F004059B6928469847012216
:100840004B4BC3F88021484602F004FD04280646BD
:10085000F9D0012807D14FF08053D3F8D8310321C4
:100860005B68424898474FF08059D4F82432002002
:1008700023F00303C4F8243201F07CFC3A4BDB6A1A
:10088000D9F8B8319B6B9847012E05D1D9F8D831EA
:1008900031465B683548984701224FF08056D4F8BE
:1008A0002432284643F00303C4F824322D4BC3F806
:1008B0000022D6F8B8315B69984700222C4BC3F868
:1008C0008021D6F8B83128465B6B98470128F8D1CB
:1008D000234B284AD860A3F50053DB6A53699B0673
:1008E000FCD501F039FE01F001FE0028FBD001F03B
:1008F00035FD01F063FD87F310880BE74FF080565C
:10090000D4F88C31184D43F00103C4F88C31D4F87D
:100910002432202043F00303C4F82432D6F8B8313F
:100920009B699847EB6AD6F8B8319B6B98470123CF
:10093000EB62EB6ADDE700BFFC0800200020084006
:100940004C0600200C0900209E080020A90600206B
:100950002002002000A00C40FC050020AA06002078
:1009600000400940000022430020094000400340AD
:100970000000044300100940122808B502D9DF2006
:10098000FFF74AFE014B185C08BD00BF014700009D
:1009900038B50446A0070D460ED1238813F4006F26
:1009A00014BF234600231C49D1F89C11C90705D464
:1009B00040F23910FFF730FE0023F4E733B3194655
:1009C0000020488049680029FBD1A2B11B8803F4AC
:1009D0004063B3F5406F05D0B3F5006F14D040F21B
:1009E0004B10E7E70820C1430C4B19611A6910420C
:1009F000FBD1FFF785FB204601F024FD2860C0B243
:100A0000431E5842584138BD0220ECE7002AF2D07C
:100A10004FF4A170CEE700BF002008400010044052
:100A200030B50024444B87B05A695C6102F05FFA2C
:100A300002F056FA02F069FA02F060FA3F4BD3F87E
:100A40009C31D80726D51022214601A802F0F9FCD6
:100A500040F60D030122ADF804309DF811306946CF
:100A600062F3030301A822468DF81130FFF790FFCF
:100A700018B9334802F012F909E001A8FFF7B2FBF8
:100A800040B9BDF8062000992E4802F007F9112060
:100A9000FFF7C2FD294BD3F89C31D90726D52A4C44
:100AA00023781BB31422002101A802F0CAFC0125FF
:100AB00040F609030022694601A8ADF804308DF81C
:100AC0001150FFF765FF08B92048D3E701A8FFF7E9
:100AD00089FB20B9BDF8062000991D48D5E71D4BBC
:100AE000059A1A601C4B1D700023237000220121FF
:100AF0001A4B1A60114BDA62194A91629A6A92078C
:100B0000FCD5184A13888BB1013B9BB213806BB99B
:100B10004FF08054D4F8B83101209B699847D4F83D
:100B2000B83101205B6B98470228F8D100220E4BA8
:100B30001A7007B030BD00BF00100440002008400C
:100B4000A8420000C5420000C2060020F142000099
:100B50001043000048020020C1060020000004608D
:100B600000200860A2060020C006002008B50A4B3D
:100B7000187810B9E720FFF74FFD431E012B09D964
:100B8000032802D1054B1B7823B1A0F10C03584276
:100B9000584108BD0120FCE79E0800209107002075
:100BA00008B5064A13681979032902D01220FFF705
:100BB00033FD002119711B68136008BD88030020F4
:100BC00008B5074A13681979032903D040F2A51024
:100BD000FFF722FD002119711B68136008BD00BFDB
:100BE000D00200202DE9F04F9A46A64B064693F816
:100BF00000900D46B9F1010F17468BB040F0F78019
:100C0000DFF8848201F0A8FC98F80030002B40F057
:100C10008B8002F06CF902F063F99C4A1388591C2E
:100C200011806BB94FF08054D4F8B83148465B69F5
:100C30009847D4F8B83101205B6B98470128F8D168
:100C40000122934B9349DA628A629A6A9207FCD531
:100C500040F2FF72904B91481A6002A90022FFF700
:100C600097FE40B902998E4802F018F8FFF7D8FEB7
:100C70001120FFF7D1FC8B4B4FF080545A690022B2
:100C800089485A61FFF73CFA02F03FF902F036F961
:100C9000D4F8B03119201B699847D4F8B031DFF887
:100CA0000C9212201B69984799F80040002C38D10B
:100CB0007F4B1A7842B3102221460DEB020002F05E
:100CC000C0FB40F60A030122ADF810309DF81D303C
:100CD00003A962F303038DF81D30764B22461B688F
:100CE00004A80893FFF754FE18B9734801F0D6FF23
:100CF000BEE704A8FFF776FA80B9BDF81220039981
:100D00006E4801F0CBFFB3E76D4803A9FFF740FE43
:100D100020B903996B4801F0C1FFA9E7012389F8C5
:100D20000030012388F800300022674804A9FFF74B
:100D30002FFE80B90499654801F0B0FF02F00FF969
:100D400001F094FE0C21624801F0A8FF0C2420461B
:100D50000BB0BDE8F08F4FF49E725E495E4802F022
:100D600078FB00225D4B5E4C83F8A320012283F8C0
:100D70007820022283F86C204FF00453594AC3F8BC
:100D8000B0234032C3F8D02302F5404203F540437C
:100D90006F32D4E900B1A069D4E90298D4E904EC37
:100DA0000191E169C3F800B0DDF804B02034C3F864
:100DB00004B0C3F80890C3F80C80C3F810E0C3F87F
:100DC00014C098611846904203F12003C161E0D13C
:100DD000454B464AC3F8E024454AC3F8E424454A53
:100DE000C3F8E8240222274B1A7002F0B8F8DFF8A3
:100DF000948098F800309A1E012A03D90C2B01D058
:100E0000E82036E73C4B1C780CB1F12031E7122288
:100E1000214604A802F015FB40F602030122ADF8BA
:100E200010309DF81D3003A962F303038DF81D30C7
:100E3000EA786B7804A843EA4223AA7809979201DA
:100E4000D2B213432A798DF81E60120202F4807226
:100E500013432246ADF82230FFF79AFD30B9BDF8B2
:100E600012200399254801F019FF6FE704A8FFF746
:100E7000B9F920B9BDF8122003992148F3E788F8A1
:100E800000A064E79E080020C0060020A206002003
:100E900000200840002008600000046001000604F3
:100EA0003E4300000010044030048080C206002051
:100EB000C1060020480200206F4300008F4300005D
:100EC00001000504BE43000001010E04F5430000CB
:100ED00021440000643900000404002100030021C3
:100EE000783400001104002100C00021A280776442
:100EF0009B6150B000719B6191070020424400004B
:100F00007E44000008B50B4B1878FFF735FD02282A
:100F10000ED0FFF72BFE60B1074903230120074ADB
:100F20000968FFF75FFE18B140F24110FFF774FB4C
:100F3000012008BD9E080020F8080020CC080020F1
:100F400008B50B4B1878FFF717FD03280DD0FFF7F6
:100F50000DFE58B10C230020064A0749FFF742FE58
:100F600018B14FF49C70FFF757FB012008BD00BF7C
:100F70009E080020B00800201447000038B5104C2F
:100F800018220021204602F05CFA0E4B0E4AE36064
:100F90008023A3720D4B204613600D4B62609B1A99
:100FA0009B102381FFF77CF90A4B1D6815B1722055
:100FB000FFF732FB1C6001F0A7F8284638BD00BFE0
:100FC00030020020BF44000010090020EFBEADDE5B
:100FD000005000204C06002013B50D4C2078FFF780
:100FE000CBFC022803D040F2FF10FFF715FB0022D4
:100FF000084801A9FFF7CCFC28B90748019901F07E
:101000004DFE4720F1E70323237002B010BD00BF5F
:101010009E08002001000104C444000073B50024B0
:10102000134B144A144D1360144A28781C711C7415
:101030001360FFF7A1FC022803D04FF4CE70FFF736
:10104000EBFA0F4E2246304601A9FFF7A1FC30B95A
:101050000C487288019901F021FE4720EFE70A4B06
:101060001B68002B14BF042305232B7002B070BD36
:101070008C030020880300209E080020A403002089
:1010800048030020E6440000AC0300202DE9F341B2
:101090006F4C23780B2B00F0D880122B00F0D580FA
:1010A0006C4D2A68002A45D06B4E3378002B38D11E
:1010B000FFF728FFA8B32B68684F1BB940F29B10BD
:1010C000FFF7AAFA94F800804046FFF755FC022883
:1010D00001D00920F4E7B8F1090F22D0B8F1030FCD
:1010E00001D1FFF79BFF2B68DFF8748113F8012B08
:1010F0005A48FA733B610122002301A988F80030A5
:101100003270FFF745FC60B956487A88019901F0C2
:10111000C5FD0C2388F80030022305203370FFF74B
:101120008DF9514F23783A686AB3052B07D1042310
:10113000237010E00A2B04BF03232370F1E7092B6F
:1011400004D84FF43472DA40D2071CD4FFF7DAFE29
:1011500008B1FFF763FF2678012E76D02B68002BAD
:1011600073D13B68002B70D1404B1B68002B6CD1B6
:10117000FFF7FCFC002868D0B31E012B5FD90C2EB2
:101180005DD0DE209CE7394E32688AB3A3F10D02B0
:10119000012A2DD9A3F11002012A29D9FFF7D0FE87
:1011A0000028D8D0324A334B1278DFF8CC809A71BD
:1011B0003268324E9A60002333700D230A210320D7
:1011C0002370FFF7B5F90122404601A9FFF7E0FBC4
:1011D0000028C0D1B8F802200199294801F05EFD2D
:1011E0000C2333700E2307202370FFF727F9B2E793
:1011F000244A1278002AAED0A3F10D02012AAAD9FE
:10120000103B012BA7D9FFF79BFE0028A3D000239A
:101210001A4EDFF87480337010230122404601A972
:101220002370FFF7B5FB002895D1B8F8022001998B
:10123000164801F033FD0C233370112378E7FFF7D4
:10124000EFFB01F013FC0123237002B0BDE8F08135
:101250009E080020C803002091070020B003002052
:10126000900700200E450000AC030020B4020020CF
:10127000C9060020940200204C0200208F070020A5
:10128000364500008E070020B802002064450000AB
:101290000121EFF3108281F310880E4B187810B9FA
:1012A00082F31088704782F310880B4A106878B96F
:1012B000EFF3108081F310880849116080F31088E3
:1012C0001A78082A02D104221A707047FFF7DEBE8E
:1012D000704700BF9E080020AC030020CC03002014
:1012E0002DE9F3470A282ED8DFE810F00B00300074
:1012F0007F027600B3002D01AB01270254024F029A
:101300006E02A14CA14D2378A14E53B9FEF77EFF8A
:101310004FF0E0432860336002B0BDE8F047FEF7CD
:101320009BBFFEF773FF2B683268C01A904207D349
:1013300000211344974A022021701360FFF77EF8C2
:101340002378002BE2D002B0BDE8F087FEF75EFF05
:1013500000248D4E05463470FEF758FF4FF0E043F1
:10136000DFF828828A4FC8F800003B60FEF774FF60
:10137000894822460368D0F804C0A5EB030E6344F5
:101380005B1BE64528BF2346A2464FF0FF31047B96
:1013900004F001094AB1BAF1000FD4D099B9022082
:1013A00002B0BDE8F047FFF749B8B9F1000FF2D03D
:1013B000E64524BF44F0020404738B423CBFCA4696
:1013C00019464A46E3E70123C8F8005039603370F4
:1013D000A2E7FFF773F81FE2FEF734FF6E4A0446F8
:1013E000137B012023F003031373FFF727F800207A
:1013F0006A4A06464FF0FF3594460CEB0013197B02
:1014000003F1080811F0010E11D0D2E90037A4EB66
:101410000309B9452DBF0023DB191B1B41F0020155
:1014200028BF88F80410AB423CBF76461D46013009
:10143000042802F11002E0D1002E84D0002DAFD09C
:10144000574B1C60574B1D6002B0BDE8F047FFF7DB
:1014500035B8524D00242F46DFF84C81534EDFF84B
:10146000509107EB0413197BE2B288070FD521F0E6
:1014700003011973D5E90031022C0B44AB6034D061
:10148000032A41D0012A0CD001224A4B1A700134A0
:10149000042C05F11005E4D102B0BDE8F04701F0DD
:1014A0008DBD42F67821444B19802C219970EFF3C1
:1014B000108182F3108832782AB981F310883F486E
:1014C00001F0ECFBE3E781F310883D4A1168002945
:1014D000F5D119787D29F2D84FF48061022013608C
:1014E000FFF726F8FFF7D2FDE9E70122EFF31083BB
:1014F00082F3108898F80020012A02D13E20FFF7DD
:101500008BF883F31088C2E70123EFF3108A83F38B
:10151000108833780D2B13D1484601F0BFFB0E2302
:101520000022284801A93370FFF732FA28B926486B
:10153000019901F0B3FB4720E1E70720FEF77EFFAA
:101540008AF31088A3E7154C1D4F94F82C30D7F878
:10155000008023F0030384F82C3001F02FFD0123D9
:10156000EFF3108683F310880F4D00232A78032AA7
:1015700005D12B70FFF78AFD86F31088E3E6022A77
:1015800024D03520BBE700BFA8060020240200209D
:10159000280200201C020020EC050020FC05002091
:1015A000480600203C060020910700209E080020ED
:1015B000CF450000AA0600205C04002094450000EE
:1015C000C803002001000104ED45000004223B6037
:1015D0002A7086F31088914E914F71887380B1F50F
:1015E000105F06D00C233B708E4B8F485A8801F059
:1015F00055FB7369C8F882303B7813B98B4801F00A
:101600004DFBA369236140F6B8336361237F23F068
:10161000030343F00103237701F0D0FC0123EFF330
:10162000108483F310882B78042B7DD1804B1A789B
:101630000A2A04BF03221A7000232B70FFF726FD2D
:1016400072E0DFF8F0814FF0010AD8F80050EFF3B4
:1016500010848AF31088764E3378072B02D1FFF777
:10166000BBFCEBE7062B00D10DB92C2047E784F338
:101670001088714B1B785BBBEFF310848AF31088E2
:101680006E4B1B689F68FFF78BFA84F310883C78D9
:10169000A4F108095FFA89F9B9F17D0F08D9EFF3D0
:1016A00010838AF310880422327083F310884AE68C
:1016B000073CE4B222463946284601F0CAFE2B46D2
:1016C00003F87E9B3A593919C5F87E204A685A605A
:1016D0000123EFF3108283F310880024C8F8004040
:1016E00082F31088EFF3108283F31088082333709D
:1016F00082F31088524D53482F78DFF84C813946D9
:1017000001F0CCFAE3B29F4205F101050FD84F4832
:1017100001F0C4FAFFF7BCFD0123EFF3108483F35B
:1017200010883378082B9AD084F310880BE6404653
:10173000297801F0B3FA0134E4E73D4D2B780E2B04
:1017400001D02320DBE60F2300244FF00C082B7080
:101750003F4B404E1C60404B374FDFF800911C70F0
:101760007288B2F5A05F05D02146484687F8008010
:1017700001F094FA0134032C06F11806F0D12B780D
:101780000F2B7FF4E0AD0C232B7002B0BDE8F047C7
:10179000FFF77CBC324B1B689A681378063BDBB2C0
:1017A00013701344D3F80310C2F82D1092F82910C7
:1017B0006FF3000182F829105B7882F8283002B0BC
:1017C000BDE8F047FFF7FCB9264B5988B1F5105F2B
:1017D00005D0254802B0BDE8F04701F05FBA2348C4
:1017E00002B0BDE8F04701F059BA214B1A7B9107CE
:1017F00012D522F003021A73D3E900210A449A6039
:101800001C4B1B68002B7FF4E4AD1B4B04201A68B3
:101810001A4B1A60FEF712FE0120C1E5B00300204A
:1018200090070020300300201C46000043460000C3
:101830009E080020AC0300208F07002088030020B2
:10184000CC030020654600008D460000A642000043
:10185000B40200204C020020C9060020914600007E
:10186000D0020020B8020020B5460000D646000095
:10187000EC0500203C060020480600204006002021
:101880002DE988480123EFF3108183F310884FF08E
:10189000FF33C74A13605360C2F80730C54A13705C
:1018A000FF22C54B1A7081F31088FFF767FB0024F5
:1018B000FEF71AFDFEF754FEFEF76EFCFEF744FD40
:1018C000BE4DBF4EBF4F032CE0B200F0B5810728DC
:1018D00000F0C581D8B9394601F052FABA4ABB497D
:1018E000D2F8F032D2F8F42201339BB2C3EBC30238
:1018F000C2EBC20202EB021202EB02120A80C3EB3D
:10190000431203EB421203EB8203B14A138001340A
:10191000102CD8D10126AF4DEFF3108486F3108838
:10192000FEF7D2FBFF2840F0C68184F31088002325
:1019300083F31088A84E3378002B40F0068101F025
:10194000C5F8002840F0CA8101F0B8F8800740F1DE
:10195000B88101F0B3F8410740F1B38105229F4BF4
:10196000C3F8D0219E4D40220021284601F069FD98
:1019700042F601032B804BF60B339A4AEB819A4BCC
:10198000DFF868C213605A68994802F4704103F1A5
:101990000C021A601A69974F02F4704241EA0C0176
:1019A00042EA0C0298608630C3E903323B6059601A
:1019B0005861914B0024AB61A6234FF001082B77AF
:1019C0008E4B18222146184685F80D802F617C60C9
:1019D00085F8378001F035FD42F60142884B0280E0
:1019E0002146182280F80D80184601F02AFD40F6A5
:1019F0000302DE23DFF80C92028040F6651289F8BC
:101A0000043089F8023089F80030AD237E4F7F4DD5
:101A1000C28121461C2280F80D80384689F80530A5
:101A200089F8033089F8013001F00BFD18222146B6
:101A30002846C7F8109087F81B80C7F81C8001F073
:101A400000FD4FF0000341F6050B4FF0250A64F34B
:101A500003036B7305F118032F6185F80EA018229C
:101A600021461846A5F800B001F0EBFC262285F8C7
:101A700026204FF0000205F1300364F30302AF6249
:101A800085F825206860182218462146A5F818B068
:101A900001F0D7FC27222F6485F83E20E861A5F8E5
:101AA00030B085F83D805A4D20222146281D01F096
:101AB000C8FC584B18222146184601F0C2FC6FF0B2
:101AC000140341F607022B71534B80F80EA09C467D
:101AD0004FF00C0E4FF0310A274650490280C1E901
:101AE00000344F4A80F80D8005614E4813600EFBAC
:101AF00004C898F80520013422F00F0242F00602D3
:101B000088F8052004F003020EFB02C2042C986042
:101B1000A3F806A01F7100F1310043F80C2BE6D1A9
:101B20006B79296043F010036B716B8BC5F81090D3
:101B300023F4706323F00F0343F4807343F0010335
:101B40006B8301233370384B1F7040F6B83101208E
:101B5000FEF7EEFCFFF79CFB344C354E0123EFF310
:101B6000108783F31088FEF7AFFAFF28054615D1DA
:101B7000E37A012B10D0D4E90432002B00F0B180BD
:101B80005A616269136000232361736863611C609A
:101B9000284B73600123E372FEF78EFD87F31088F4
:101BA000FF2DDBD00B4B28461D70FFF799FBD4E7C8
:101BB000A1080020A0080020AC080020002002405E
:101BC000B03A0000C32F000000100050A60600200D
:101BD000A40600209F0800209E0800200020084046
:101BE00048030020880300208C03002000068600A4
:101BF00092070020A40300200201FF7BB003002015
:101C000030030020C3060020940200204C02002074
:101C10000C030020B8020020D4020020040300209E
:101C2000D0020020CA0600209107002030020020C8
:101C3000040900204002002001F07CF94FF48013D9
:101C4000C5F8A03001F07DF94FF40053C5F8A0307D
:101C500001F07EF94FF48043C5F8A03057E63046D6
:101C600000F07CF90138C0B201281FD94FF080582C
:101C7000D8F884312C2100201B689847D8F884318B
:101C800001202D211B689847012000F00FFA68B150
:101C9000D8F884313F2100201B689847D8F8843158
:101CA0003F2101201B68984700F0BEF94FF46130D6
:101CB00000F0ECF82BE684F310882870FFF710FB97
:101CC0002AE600F0FBFE82073FF54CAE00F0F6FE80
:101CD00043077FF547AE0222034B41E67320FEF730
:101CE0009BFC02494A604CE700200840FC080020A9
:101CF0000122024B00205A60FEF7A0BB00200940E1
:101D000010B500F095FB2C4B5C690440210207D50F
:101D10002A4A1378042B2AD106201070FEF78EFB76
:101D200022070DD5244A536923F008035361244B3D
:101D30001A78012A04D1022205201A70FEF77EFBD0
:101D4000A30710D51C4A536923F0020353611B4BB0
:101D500018780D2826D0102828D0092803D10A2267
:101D60001A70FEF76BFB002C24DA8E2018E0102B83
:101D700001D10820D2E7134A12681279032A02D14E
:101D8000FEF70EFFCCE7104A12681279032A02D13F
:101D9000FEF716FFC4E70B2BC2D0122BC0D0852054
:101DA000FEF73AFC0E2207201A70DAE711220A2009
:101DB0001A70D6E710BD00BF001004409E08002036
:101DC0009107002088030020D00200204FF48042B9
:101DD00007498B699B7803F1804303F501231A605F
:101DE0008B695B7803F1804303F501231A60704728
:101DF00070060020044A9068D36891688842FAD13E
:101E00001B0C43EA0040704700200940074B084A7A
:101E1000186B127B9B6A52B2A3F54073534340F395
:101E20001000A0EB231080300012704700500940D2
:101E30000013005070B50324124B46005D68B44097
:101E400025EA040501FA06F635435D6001251C68A4
:101E5000854024EA0504824014431C609A69090CF9
:101E600022EA050544F208028140294399619B69F1
:101E7000054B9B691B5C03F1804303F501231A604A
:101E800070BD00BF00100C4070060020A8B10C4BC4
:101E9000B3FBF0F00023B0F5807F0BD80021094A96
:101EA0001B0143F001039160136001230138D060EE
:101EB0009360704701334008EDE7024B986070472C
:101EC00000366E0100700C40064BB3F8E806B3F81C
:101ED000E63680B29BB2984284BF03F540739BB252
:101EE000181A704700000E40094A40EA0120B2F873
:101EF000E6369BB202EB43010133B3F5407F08BFE6
:101F000000239BB2A1F8E600A2F8E636704700BFB6
:101F100000000E400022F0B50F4D461CB5F8E63625
:101F20009BB28A4204D30C4A9BB2A2F8E636F0BDBB
:101F3000571C8F4218BFB75C845C02F1020218BFC5
:101F400044EA072405EB43070133B3F5407F08BF9C
:101F50000023A7F8E640E4E700000E4070B5294AE8
:101F60000346126952074BD4274A00F12006144653
:101F7000154618685968083303C5B3422A46F7D195
:101F800018684FF080532860D3F8A031FF201B68F9
:101F9000984701221D4B1E4D5A6521692B689942B5
:101FA00005D0E2891B4801F054FA23692B60E369EC
:101FB000984742F22B02184B4FF480711A6042F698
:101FC0000B32002401255A60144A022011605C6320
:101FD0009D614FF08053D3F8A031DB6898470B4BDD
:101FE0009B6C0F4BC3F808520E4BDB6A00F0F6FFF8
:101FF00000F0FBFF01F002F801F007F8204670BD89
:102000000220FCE7001009407006002000600C4030
:102010005006002000000E4000500C4000100E4002
:10202000000022430020094010B5104B9A68520569
:10203000FCD508221A600A221A601A6800220C498C
:10204000C1F808220B49C96A1A6000F0D5FF00F0F8
:10205000E3FF094B1B6A9847BDE810404FF08053DF
:10206000D3F8A031BF205B68184700BF00100E40B6
:102070000000224300200940700600200122044B8A
:10208000DA63DA68D207FCD40122024B1A70704777
:1020900000500C40AE0800200222034BDA63DA68DD
:1020A0009207FCD4704700BF00500C4038B5134B6A
:1020B0005A6899891488A4B20C4304401AD1104973
:1020C0000D78CDB10C7090809A8902439A815A683C
:1020D000D0805B68188100F081FF00F086FF204609
:1020E000084B1A6842F040021A601A6822F0400257
:1020F0001A6038BD0220FCE70120FAE770060020D4
:10210000AE08002000500C40684680F309884FF06C
:10211000020080F31488BFF36F8F034800F500704E
:1021200080F3088802E0000000000020704700BF34
:102130004FF08052014B5A60704700BF00ED00E045
:102140000A4B1A680A4B1968914208BF7047EFF3AF
:10215000098C2CE9F00FC1F800C01A60D2F800C059
:10216000BCE8F00F8CF3098870470000FC080020E1
:102170004C0600202DE9F84F6C4B06461C686C4954
:1021800014F0020406D008236A4A8B716A4B1A6362
:10219000BDE8F88FFFF73AFE684BD3F8B4CF4FEAAB
:1021A0002C721CF4001F02F1010208D1C0F13E03A1
:1021B000DB10082BA8BF08239A42B8BF1A46604B11
:1021C000D3F8B852D3F83C31C5F30465152D88BF58
:1021D000203D2A446FF00905C3F30443152B88BF43
:1021E000203BAA42B8BF2A46152AA8BF1522554D42
:1021F000904602F01F0242F4F852A5F86E20524AAF
:10220000D2F8242212F0030518BF0125520748BF57
:1022100045F002050EB145F0040591F90720821A38
:10222000042A02DC8A79AA4262D0B0F10F0205F0DA
:10223000040A05F002096ED402EB0212B2F5E06F57
:102240004FEA222628BF0626404F38BFB6464FEA3F
:1022500086063744D7E9E66BABEB060628BF4FF09E
:10226000070EF7B2BAF1000F02D0C6F3072B5F4496
:10227000B9F1000F02D0C6F3074B5F4415F0010F10
:1022800001D007EB1667324E56F82EB05FFA8BF688
:10229000BAF1000F02D0CBF3072A5644B9F1000F70
:1022A00002D0CBF307494E44A3EB080315F0010F0E
:1022B00018BF06EB1B66012BB8BF01234FF0340893
:1022C00008FB03F3A2EB0E227A435FFA8CFC0CFBB3
:1022D00003F3803206EB1222B3FBF2F34FF6FF72E8
:1022E000934228BF134600F307008B80C8718D719D
:1022F000184B9B680B608B881E2B12D81F238B807A
:102300000F3B154A1B0944EAC3031A430A4B1A63DD
:1023100000225A633CE74FF0000E7746B3E75B08B4
:102320000134B3F5007FFAD2EAE700BF00000940AC
:1023300068060020FDFDA400001009400030005098
:1023400000100050006208400020084004100050B7
:102350009C1300500020094000E7A48010B5144BE6
:102360005C6BA1B281B1FFF751FD124A92F90730BF
:10237000834205DD6FF07F039842B8BF1846D071E5
:102380009088884201D9948010BD0B4B14689B68DB
:10239000091A02331B1B1F2B28BF1F235B08D940C0
:1023A0004FF6FF730144994228BF19469180EBE72D
:1023B00000100940680600200020094010B5194BA4
:1023C000986A00B3184AD2F8B41F01F04063B3F121
:1023D000406F18D0154C23689B0714D4D2F8B03F37
:1023E0009B0710D42368D2F8AC2F13F0050FC2F36B
:1023F000035202F11C024FEA021205D0904202D2AF
:1024000023F00503236010BD9042FCD9080158BF9A
:1024100043F001034A01054A58BF43F00403136027
:10242000F1E700BF005009400030005000000940B3
:10243000034B1869C14319611A690242FBD1704705
:1024400000100440064B1A68002AFCD1DA611860BB
:10245000DA69002AFCD00022DA615868704700BFB0
:102460000010044008B54FF08053D3F8A8315B69E1
:1024700098470022014BC3F8842408BD0000604245
:1024800008B54FF08053D3F8A8319B6998470022D4
:10249000014BC3F8842408BD0000604210B5044C11
:1024A0002368002BFCD080470123236010BD00BFB0
:1024B00000800C40044B1A68002AFCD001220088DE
:1024C0001A6080B2704700BF00800C40042808B535
:1024D000054804D1FFF7EEFFC0F3413008BDFFF718
:1024E000E9FFC0F30030F9E736A00C40012008B541
:1024F000FFF7ECFF012801D1012008BD0E48FFF7CE
:10250000D9FF10F00100F8D04FF08053D3F88000CD
:10251000FFF7C4FFFFF76EFC084B9A68D860801A7B
:10252000074A50431A68010CA2EB9202B2EB104F1B
:1025300094BF19601A60DFE734A00C4054060020F5
:1025400040420F00034B1A68002AFCD001220160B0
:102550001A60704700800C4037B5002301240A4DF3
:10256000224619462846009400F07FFE23460222A8
:1025700000212846009400F078FEFFF73BFC034B57
:10258000986003B030BD00BF00A00C40540600208E
:10259000012273B50546B84B1A61B84AD2F8943295
:1025A000002BFBD0C022B64B00211A60B54BD3F8EC
:1025B000B02F12F0020F14BF7223D3F8AC3FB24A0F
:1025C00004BFC3F3074343F0F00382F85630AA4B2D
:1025D00019646FF00901AB4BD3F8B44FA3F5005366
:1025E000D3F8B832C3F30463152B88BF203B03EB49
:1025F000247301338B42B8BF0B46152BA8BF15239C
:1026000003F01F0343F4F853A2F86E309F4BA04928
:102610001B6813F0020309BF9E4A44F04063C2F8EE
:10262000943423466FEAD3626FEA936302F00102A7
:1026300003F001030A608B60974BA203D3F8503379
:10264000C3F38361C3F38F230ED444F307221046F0
:102650000028C0F2F480002AC2F10000C8BF0020A8
:102660000244002A40F0F5808B4E43EA01418B483A
:10267000FFF768FFD6F85023D6F85033C2F387022D
:102680001B0203F4407313432C2140F2FF320093EA
:102690001838002300F0E9FDD6F87C138048C1F318
:1026A0000D01FFF74FFFD6F87413083801F0FC3125
:1026B000FFF748FFD6F87013043821F07F4121F46A
:1026C0004031FFF73FFF6F49D6F87823D1F8B06F5C
:1026D000C2F30350F607C2F303430BD4D1F8AC6F37
:1026E00046F3032146F303360144334481F30400E7
:1026F00083F304031904212D93B241EA005141EA06
:10270000030184BF02F0804211436648FFF71AFFBD
:10271000212D94BF0123604B634E84BFD3F88C33CB
:10272000C3F300735B0043F02003212D86F849308A
:1027300091BF0123584BD3F88C33C3F3407343F05C
:1027400010031F2D86F8493040F29480524BD3F885
:102750009833D90C01F44072990D01F01C0111431A
:10276000C3F3815319435148FFF7ECFE1F2D94BF6B
:102770000023494B4E4884BFD3F89833C3F3015329
:102780005B0043F06003212D86F84C3091BF00239D
:10279000414BD3F88C33C3F3C063DB0043F08003B9
:1027A000212D86F8413091BF00233B4BD3F88C3369
:1027B000C3F345539B001F2D43F47C43A6F8DC3044
:1027C00083BF354B3B4AD3F898333B4981BF19034C
:1027D0000A4001F47C111143FFF7B4FE4FF480026C
:1027E00040F20E21354B1A642B4BD3F8142392B2CE
:1027F0008A4219D8D3F8BC12D3F8BC32C1F30362B1
:10280000C3F3034311F0706FA3F1060118BF02F187
:10281000FF32012992BF0723023303F00F0342EA7C
:102820000312274BD2B29A70C4F38142012A234B80
:1028300048D0022A75D04FF000421A6471E05B085C
:1028400005D149080ABF01234FF6FF73194601302D
:10285000FEE65B0043F00103B3F5803F08D3490077
:1028600041F001010F2986BF4FF6FF730F210123AD
:10287000013AF6E6002176E7001009400000224305
:1028800000600C4000300050006208400000094029
:102890000000204300002A430010005018A00C4004
:1028A0001CA00C400CA00C4000A10C4028A00C4027
:1028B00008A00C4000F0C0FF00803F4000A00C408A
:1028C000006008405F4AD2F88C239103B3D44FF4E0
:1028D000804119645C49C2F30333C86820F08F005B
:1028E0000343500A00F080000343CB60D1F80B0093
:1028F000C2F3032320F00F000343C1F80B30D1F8DB
:102900000A3002F0800023F0E703034302F0600086
:10291000034302F00600034302F001021343C1F82F
:102920000A304A4BC4F38151D3F8B03F13F0080F7B
:1029300008BF4022464B08BF9A664FF40072C3F8A6
:102940008020404B0129D3F88C33C3F3C14343F0BB
:102950003003337235D0022967D000296ED10124AB
:1029600002230C223A48009400F07FFC43F2BD722F
:10297000384B3949DA6386221A645C64D1F88428BA
:10298000002AFBD000225A642E4B344AD3F86C3311
:10299000022003F03F03D37247F61803A2F8703009
:1029A0002F4BDB6A4FF08053D3F8A031DB68984798
:1029B0004022284B1A6001222A4BC3F8942402B00B
:1029C00070BD0846FFF782FD83B2002100930446E4
:1029D00002230C221E4800F048FC23490846FFF75A
:1029E00069FDC0F341308442F8D1184B1A49D3F83D
:1029F000A80F184B82B2DA63C0F307421A640122AF
:102A00005A64D1F88428002AFBD000225A644FF07F
:102A10008053D3F8B4314FF060221B680721000EB9
:102A200098474FF480620A4B1A64032300930223F1
:102A30000C220021064800F018FCA5E702230093B1
:102A4000F6E700BF00100050006008400030005062
:102A500000A00C4000600C4000008C4300B00C4013
:102A6000002009400000604236A00C4013B500244D
:102A70000122234621460F48009400F0F6FB0D4842
:102A8000012302222146009400F0EFFB0120FFF712
:102A90001DFD28B14FF08053D3F88000FFF7FEFCF6
:102AA000FFF7A8F904494860FFF7B0F9086102B0E0
:102AB00010BD00BF00A00C4054060020024BD3F80C
:102AC000D40100F00E007047002008404BF69A1227
:102AD000114BD3F81803C0F30F30904207D1D3F84D
:102AE00018331B0F0B2B0CBF0420002070474BF634
:102AF000BE1398420BD04BF64133984209D04BF6A7
:102B00002033984214BF4FF0FF300220704701205D
:102B100070470320704700BF0010005070B5444E4E
:102B2000D6F81C43631C08BF0024FFF7CFFF014603
:102B3000B0B9D6F81853D6F8A0002D0F060658BF26
:102B4000C1B2FFF7C3FF04280AD8DFE800F0030A88
:102B50000E0E1000082D03D1163149B2152908DCDC
:102B6000FEE7022DFCD11431F7E7002DF8D10A3130
:102B7000F3E700222F4BC3F8842401232E4AD365A8
:102B80002E4AC2F808322E4AD368002BFCD12D4AB7
:102B90002D495368D1F8B01F23F000534D0723F09F
:102BA000070332D543F0005343F005035360274B2E
:102BB000D3F880312BB1264B2046D3F80031FFF7F4
:102BC000E7FC0022234BC3F88C21234A936C23F0AB
:102BD0007F6323F4702343F09C7343F48033936446
:102BE00002F5BC225368C3F30133012B08D15368AB
:102BF00023F0407323F4403343F4003151605360B9
:102C00000F4AD368002BFCD170BD106843F000510F
:102C1000800741F0040109D043F0005343F007035B
:102C20005360136803F00303032BFAD15160BEE72E
:102C3000001000500000604200600C40002004437F
:102C4000000068420040034000300050000028436C
:102C5000000020430020084000200340034B9968F7
:102C6000D8689A689142FAD1704700BF00200940A5
:102C70000CB407B504AB53F8042B0749CDE9003079
:102C800001A800F01CFB0022019B1A7003B05DF844
:102C900004EB02B0704700BF5D3100000FB407B510
:102CA000074904AB074853F8042B096800680193EF
:102CB00000F005FB03B05DF804EB04B0704700BF03
:102CC000940600209806002037B5234B04461A7856
:102CD0004AB12248FFF7E2FF40F29D2003B0BDE871
:102CE0003040FDF799BC01221D4D1A7069680268D9
:102CF000C1F308011B48FFF7D1FF21681A48CB68D0
:102D00000093D1E901230968FFF7C8FF23696168CF
:102D100000931648D4E90223FFF7C0FF236A6169D4
:102D200000931348D4E90623FFF7B8FF2168114840
:102D3000CB690093D1E905230969FFF7AFFF696803
:102D40000D48EA6AAB6AFFF7A9FFA96B0B486A6BEB
:102D5000FFF7A4FFC0E700BFAD0800205F470000F9
:102D600000ED00E07A470000AB470000DC470000C0
:102D70000D4800003E4800006F48000097480000E2
:102D8000024B1960024B1860704700BF9406002088
:102D900098060020F8B5094C094B2646D3F8305464
:102DA000084F05F00F05AD02BC4202D3064B1E6072
:102DB000F8BD2046FFF756FB2C44F5E700D0010094
:102DC0000020034000E001009C0600200FB407B57E
:102DD00004AB53F8042B00200449019300F06FFA70
:102DE00003B05DF804EB04B0704700BFF12D0000A4
:102DF00013B5FF298DF807100FD0094C094B216836
:102E000099420AD3084B994207D201220DF10700DB
:102E1000FFF736FB23680133236002B010BD00BF0B
:102E20009C06002000D0010000E00100F8B50D4B29
:102E30000146984202D30C4DA84204D3BDE8F840A5
:102E40000A48FFF7C3BF0446094F00F18006AC42B1
:102E5000214606D238460A680434FFF7B7FFA64277
:102E6000F5D1F8BD0000002000500020C34800004C
:102E7000E548000040F29D23984210B504460ED06C
:102E8000FFF788FF21460648FFF7A0FF6846FFF7D7
:102E9000CDFF044BD3F8F030DB0700D500BE10BDEA
:102EA000F648000000ED00E008B5FFF737FE0748E0
:102EB000074A0849121A00F0CCFA0748074A0021CD
:102EC000121A00F0BEFAFEF7DBFCFEE7B0080020A5
:102ED0000D0900200449000000000020AF08002078
:102EE0004FF08053D3F8B03112205B6918474FF090
:102EF0008053D3F8B03119205B6918474FF08053E5
:102F0000D3F8B03112201B6A18474FF08053D3F822
:102F1000B03119201B6A18474FF08053D3F8B031F5
:102F200016205B6918474FF08053D3F8B0311D204D
:102F30005B6918474FF08053D3F8B4311420DB6B32
:102F400018474FF08053D3F8B4310D20DB6B18478E
:102F50004FF08053D3F8B4310E20DB6B184708B51F
:102F6000FFF7C4FA0028FBD008BD38B504464FF679
:102F7000FF75013CA4B2AC4200D138BD4FF47A5089
:102F800000F08AF9F5E708B5FDF7CAF84FF4C87004
:102F9000FFF7EBFFFDF7E2F8BDE80840A020FFF7E0
:102FA000E4BF08B5FDF7BCF8A020FFF7DEFFFDF792
:102FB000D5F8BDE80840A020FFF7D7BF0320FDF7F4
:102FC0003DBA0846FDF7F8B908B54FF08053D3F87D
:102FD000B0315B6998471B20FDF71EFB4FF0805313
:102FE000D3F8B03116201B6A18474FF08053D3F83E
:102FF000B03116201B691847FFF78EBF4FF0805382
:10300000D3F8B0311D201B6A18474FF08053D3F816
:10301000B0311D201B691847FFF785BF022008B596
:10302000FFF7D2FF042008B5FFF7CEFF052008B553
:10303000FFF7CAFF062008B5FFF7C6FF0B2008B54B
:10304000FFF7C2FF0C2008B5FFF7BEFF0F2008B541
:10305000FFF7BAFF102008B5FFF7B6FF112008B53B
:10306000FFF7B2FF7C2008B5FDF7D6FA132008B5AC
:10307000FFF7AAFF152008B5FFF7A6FF08B5FEF772
:10308000FDFFBDE80840FFF747BF172008B5FFF771
:103090009BFF182008B5FFF797FF704770471C206B
:1030A00008B5FFF791FF08B5FEF7F6FFFFF73BFF06
:1030B0009720FDF7B1FA1E2008B5FFF785FF1F2006
:1030C00008B5FFF781FF202008B5FFF77DFF21201D
:1030D00008B5FFF779FF222008B5FFF775FF232019
:1030E00008B5FFF771FF242008B5FFF76DFF252015
:1030F00008B5FFF769FF262008B5FFF765FF272011
:1031000008B5FFF761FF282008B5FFF75DFF29200C
:1031100008B5FFF759FF2A2008B5FFF755FF2B2008
:1031200008B5FFF751FF2C2008B5FFF74DFF2D2004
:1031300008B5FFF749FF2E2008B5FFF745FF2F2000
:1031400008B5FFF741FF302008B5FFF73DFF3120FC
:1031500008B5FFF739FF80E8F00F704703685A1C85
:10316000026019707047F0B50124B0FBF4F58D4290
:1031700003D200261CB91C70F0BD4C43F5E7B0FB30
:10318000F4F5B4FBF1F704FB15002EB9002D03DCB8
:103190008C420CD33C46EDE7092D08DD002A14BF14
:1031A000372457242C4403F8014B0136F2E730242E
:1031B000F8E72DE9F041069F002B05460E4614BFA7
:1031C0004FF030084FF020083B4613F8011B14461F
:1031D000013A09B1002CF8DC002C04DC17F8011BC3
:1031E00031B9BDE8F08141462846B047013CF3E7DC
:1031F0002846B047F2E708B5012200210220FEF779
:1032000019FEBDE8084000224FF001110120FEF731
:1032100011BE0021FEF768BEF8B50023A2F14007F9
:10322000064642E90733384642E9053342F80C3C8A
:1032300014460D46FFF78FFF4FF08073384644E980
:10324000026344F8205CF8BDEFF30580003818BF36
:10325000012070470068030754BF00F003000420FA
:103260007047EFF3108072B6704710B40F2BBDF8A3
:10327000044088BF103B00EB410088BF120C04FAE9
:1032800003F198BF00F5007010BC88BF00F5017015
:1032900041EA0241FFF756B901387FF4FDAF7047AC
:1032A0001EF0040F0CBFEFF30883EFF309832DE941
:1032B000F84F6846FFF708FDBDE8F84F70472DE965
:1032C000F04F0746884615461C464FF00A0B87B05C
:1032D000297829B3252903D001353846C047F7E7B7
:1032E0006A784FF00009302A0CBFAA784FF0000A24
:1032F000A2F130030ABF4FF0010AAE1CEE1C092BED
:1033000015D96C2A7AD1354615F8012B632A00F0BD
:10331000848021D8252A6FD0582A40D0002AD7D1BE
:1033200007B0BDE8F08F0BFB093916F8012BA2F1AD
:103330003003D9B20929F6D9A2F16103052B04D8CB
:10334000A2F157030A2BEED0DBE7A2F14103052BD4
:10335000D7D8A2F13703F5E7732A69D01BD8642ABE
:10336000B6D154F8040B00220028B8BF2D234FF02B
:103370000A01BDBF8DF80C3040420DF10D0303ABC7
:10338000FFF7F1FE03AB009353464A4641463846E9
:10339000FFF70FFF9CE7752A09D0782A98D1A2F190
:1033A000580042424FF0100103AB424102E00022BC
:1033B0000A2103AB54F8040BE2E754F8040B002293
:1033C0000028B8BF2D234FF00A01BDBF8DF80C3087
:1033D00040420DF10D0303ABFFF7C5FE3546D1E7C3
:1033E000A2F158014A424A41102103AB54F8040BA0
:1033F000FFF7B9FEF2E7354625216EE7642ADCD0F7
:103400000FD8252AF7D003D8002A89D035465FE7A0
:10341000582AE5D0632AF9D1354654F8041BC9B2BD
:103420005BE7752A09D0782ADAD0732AEED13546BF
:1034300054F8043B00930023A7E700220A2103ABC2
:10344000D4E703460244934200D1704703F8011BBE
:10345000F9E710B5431E0A44914200D110BD11F89E
:10346000014B03F8014FF7E703461A461178013381
:103470000029FAD1101A7047546100007F1402002D
:10348000060005000F0008004800520080FF3F00C2
:10349000000000000000000000000000000000002C
:1034A000304000400140034007400F404F40CF40B4
:1034B000CF41CF43CF47CF4FCF3FCF2FCF1FCF0FDE
:1034C000000000000000000000000F0008000000E5
:1034D0003F00000040003F000000040068000E00B4
:1034E000DC00060043001A00050000000000020096
:1034F00000000000000000000400C0000000040004
:10350000C0000000070000000000000000000000F4
:10351000000000000000000050C00091007070C06A
:103520000091007082312100319110B10070018151
:1035300001B100A18231329110B10191111041818C
:1035400041226340F106007051C0019130181039DA
:10355000833108D01831416F3100319110B183149B
:1035600014166F680070251050C00091F4C340C15C
:103570002014036F311041045082F0228440512600
:1035800022C082312100319110B1633931104104E0
:1035900082C082312100319110B163393110A2C053
:1035A00082312100319110B150101531051405926E
:1035B0000070536452C0311031066131C10256644B
:1035C00012C13110213971065131E1025664007087
:1035D00051C0019101CCE2C05664536411C1C2C014
:1035E000566454B0007154A064B0F0800022B5401D
:1035F00011C122C1566451C00191E2C08231608282
:103600000200329110B100C3C86853644012B090F8
:1036100032B000C3CE6840C2D0688012B09032B0E1
:103620000070536401C122C1566401C1C2C0566416
:1036300053829D64C012B09032B00070536472C265
:1036400081C0566422C111C1566402C011C15664C2
:1036500062C031C3566462C311C1566402C311C152
:103660005664538253399D64E2C35B641122F8406F
:1036700042C281C8566452C211C1566472C2E1CEC0
:10368000566402C281C8566402C201C85664B0C002
:103690000C690070536442C201C8566452C211C022
:1036A000566472C2E1C0566402C001C1566462C071
:1036B00001C3566422C101C1566462C301C156648C
:1036C00002C301C1566453829D64007002C162311D
:1036D00001C0A080001E3241101A34612010101A5F
:1036E000136F236E1116121634690070E092D082A7
:1036F00000223B45C0B20070000000000000000046
:1037000000000000000000000000000000000000B9
:1037100000000000000000000000000000000000A9
:10372000067305720B720E7250B00071818060B02A
:1037300050A09280F0EFF19202933A6541227845D1
:103740008080F1C11004301601110114016C8B61ED
:103750008C618D618E618F619061916193619561E2
:1037600097619961706273629180F2C02104213186
:103770008280422A1214321601112114016CA661B2
:10378000C761AC617362A661C761AC6173629B6122
:103790009B619B619B619B619B61AC649B61D564F8
:1037A0009B61E2649B610E659B612A659B618280DF
:1037B000E0DFF2923A65B0B0A261B1B00673057273
:1037C00030B05861D0CF3A6584C203C0C0C36864CA
:1037D0009078509160781031617810140092507890
:1037E0004031617810004031717810001092B0784B
:1037F0006092817821923078403141781000309287
:1038000010C0F0919B6154A0F0805022CF454080C1
:1038100000226646C76100C86091598150B091800E
:1038200041222E46C0CF3A65128282318239423916
:10383000281077641282F11212042F101F312F14F6
:1038400040C120140D6F6D39DE10F4C34E0482C0E8
:1038500082312E006D39A2C082312D001A828A3940
:103860002082803180390BC00B18AC78308240390F
:10387000021011C0013010C001180218823121005D
:10388000C126919103B013B063B053B003823914D1
:10389000418001226646B481C491D5819518B51C3A
:1038A0001C4EC51C544A6591F08010220C422C62BB
:1038B0003D9110B13E9110B165910F925981F9146B
:1038C000AB18BC10F0805022C74110222C460C626D
:1038D000B0CF3A6563B030820010F2C0200402100D
:1038E00011C0013010C00118021882312100C12618
:1038F0009191919113B003B063B053B064B054B0E0
:10390000007141800122664663B064B0F0805022AD
:10391000C741B181C191D1819118619131B04462A7
:1039200012828231823942392810776459810582A6
:10393000591420820BC00B18AC7880C0007163B0A2
:10394000626A0C62018262818231823DA0EFF19253
:1039500002933A6503A09B61A28077649B6150B09B
:1039600000719B619904002119050021790400214F
:10397000F0B5174C40216118C878022805D00948D5
:103980000021016008498847F0BD256E074E35606B
:10399000600728432066276824600E488047276018
:1039A0003560F0BD2C110440A5650000284004409E
:1039B00010B5074CA17D002905D10121A175480250
:1039C00004493E3988472068002800D0804710BD50
:1039D000540200218B39000010B50549054A72B622
:1039E000C878012802DC01204870121D62B6104719
:1039F000940200216D470000F8B51A4E0546316B60
:103A00001948CC09E401002D11D018490978022980
:103A10000FD0007B044372B60120154F4002B84717
:103A2000114820380088C109C90704D016E0C07ABF
:103A3000F0E7407BEEE70F493463CC61400AC007F2
:103A40000CD001208003F16A002D01D0014300E079
:103A500081430846F1620749403948630020B8476E
:103A600062B6F8BD80020021880000219602002184
:103A7000DF3C0000404004400749002800D00420FB
:103A8000064A72B60978C90701D0105800E08020B4
:103A900062B640B2704700006B02002158600440DB
:103AA00000000000E610003000000000E6162000D4
:103AB000D6000E40DC000E40CE000E4000005A073B
:103AC000D43A0000A03A0000B3480000F7310000EB
:103AD000CD1D000008140C0408142C04081447041D
:103AE00008144D0436443724FEAEB7AD426400706E
:103AF0006B7C706868002514716869002514726811
:103B00006A0025146B7801F801FAF2BE6E787068CD
:103B10000EFD726892ED06FD6E7C2D6451046B788B
:103B20001F8F8FED01EC01BEB7ADB78D30664265DA
:103B300000006E18889D019C0DB6671019AF00AA91
:103B400009B6FFA839AF06BE6B0C6988088F47FD20
:103B5000B79D6B080188018AECBE2F26FEAE304669
:103B600051042755426600006B0C0B145104426748
:103B7000FF86FF036D0C6C7847CD6D6806CD05B6EA
:103B800000006C0C6F7C2D656D0C6D7801F82BE9D5
:103B90000EFD01BE3664B7BD1A24FEA6B7AD1A6489
:103BA000B7AD000075037603780300000000FFFF47
:103BB0000000000000000000000000000000000005
:103BC00000000000000000000000000000000000F5
:103BD00000000000000000000000000000000000E5
:103BE00000000000000000000000000000000000D5
:1041B0000000000000000000000000000000B7AD9B
:1041C0007917B7ADB7AD03868003AC0F0060AC0BB9
:1041D000B1CDB78D36ED06BE732B741B2A9D05B687
:1041E000739809EF03868C13AC1F7D070E46087089
:1041F00003869213AC1F7D0701EC02BE0E46018EB2
:104200000E66A9EDFFF803BE03869E13AC1F7D0763
:1042100003868013AC1F0E6636EDD9BE741B019861
:104220000386009A01AE0010741F7D0700006964C8
:104230006C65000A4C4F53543A25640A2563005BB1
:1042400047656E6572696350726F6365737353631C
:10425000686564756C65725075625D205374616346
:104260006B206D61726B657220617420307825302F
:10427000387820636F72727570746564202870726C
:104280006F636573733A202573206174203078253D
:10429000303878292E20537461636B206F766572F5
:1042A000666C6F773F0D0A004653506F77657264F6
:1042B0006F776E3A2073656E64436D642066616942
:1042C0006C65640A004653506F776572646F776E51
:1042D0003A20434D445354413D30782530386C7872
:1042E0002C207374617475733D3078253034780AEE
:1042F0000053594E435F53544F505F5241543A203C
:1043000073656E64436D64206661696C65640A0060
:1043100053594E435F53544F505F5241543A2043D8
:104320004D445354413D30782530386C782C2073FF
:1043300074617475733D3078253034780A00726684
:104340005F636F72655F706F7765725F75703A203B
:10435000434D445F50494E47206661696C2C2043B1
:104360004D445354413D30782530386C780A005321
:10437000594E435F53544152545F5241543A207353
:10438000656E64436D64206661696C65640A005300
:10439000594E435F53544152545F5241543A204363
:1043A0004D445354413D30782530386C782C20737F
:1043B00074617475733D3078253034780A00726604
:1043C0005F636F72655F6170706C795F7061746359
:1043D0006865733A2053544152545F5241542066E9
:1043E00061696C2C20434D445354413D3078253055
:1043F000386C780A006F6E28293A20434D445F429A
:1044000055535F52455155455354206661696C2C94
:1044100020434D445354413D30782530386C780A60
:10442000007365747570526164696F3A206F6E280D
:1044300029206661696C6564207769746820256449
:104440000A007365747570526164696F3A20434D58
:10445000445F524144494F5F53455455502C2043CB
:104460004D445354413D30782530386C782C2073BE
:1044700074617475733D3078253034780A00736543
:10448000747570526164696F3A20434D445F5241C4
:1044900044494F5F534554555020776169742C202F
:1044A000434D445354413D30782530386C782C20AE
:1044B0007374617475733D3078253034780A006DFB
:1044C00061696E0073746F7052583A20434D445FB7
:1044D00041424F5254207374617475733D30782596
:1044E00030386C780A00737461727452583A204301
:1044F0004D445354413D30782530386C782C20732E
:1045000074617475733D3078253034780A007374A3
:1045100061727454583A20434D445354413D3078AD
:104520002530386C782C207374617475733D307845
:10453000253034780A007374617274424C454164CA
:104540007654583A20434D445354413D30782530F9
:10455000386C782C207374617475733D3078253015
:1045600034780A007374617274424C455363616E0F
:104570006E65723A20434D445354413D30782530A6
:10458000386C782C207374617475733D30782530E5
:1045900034780A0053656E64696E67206120313299
:1045A000302D62797465206672616D652E203173DD
:1045B0007420627974652069732034322C20326E45
:1045C0006420627974652069732034342E0A0042B5
:1045D0004C45206164766572746973656D656E74AF
:1045E0002054582074696D656F75740A00424C45FB
:1045F0004164765761746368646F6754696D65726E
:104600003A20434D445F41424F52542073746174C9
:1046100075733D30782530386C780A005458446FF3
:104620006E653A207374617475733D30782530344B
:10463000782066735374617475733D307825303417
:10464000780A00546865206672616D652077617331
:104650002073656E74207375636365737366756C20
:104660006C792E0A00412025752D627974652066CB
:1046700072616D6520776173207265636569766527
:10468000642E20436F6E74656E743A0A002575209F
:1046900000424C454164765458446F6E653A206F31
:1046A000703D25642C207374617475733D307825DA
:1046B0003034780A00424C455363616E6E65724631
:1046C00061696C65643A207374617475733D307808
:1046D000253034780A00424C455363616E6E657232
:1046E0004661696C65642C2062757420636F6D6D22
:1046F000616E642072657475726E6564204F4B0A3A
:10470000000000010202020202020202020303038D
:10471000030303030529000000053000930004246F
:10472000009300031C005A000218004E0001140000
:1047300042000021013100FD18012500FA11011D80
:1047400000F70E011900F40B011400F10B030C002B
:10475000EE09030C00EB07030C008100000000468B
:1047600061756C742068616E646C65722072652D71
:10477000656E74657265642E0A00556E68616E64BC
:104780006C656420696E746572727570742028257A
:104790006C64292C20657863657074696F6E207372
:1047A000702030782530386C780A002072303A302A
:1047B000782530386C78202072313A3078253038BE
:1047C0006C78202072323A30782530386C7820208E
:1047D00072333A30782530386C780A002072343AD7
:1047E00030782530386C78202072353A3078253092
:1047F000386C78202072363A30782530386C782042
:104800002072373A30782530386C780A00207238B8
:104810003A30782530386C78202072393A30782553
:1048200030386C78207231303A30782530386C78F6
:10483000207231313A30782530386C780A00723184
:10484000323A30782530386C7820206C723A3078E3
:104850002530386C78202070633A30782530386CF9
:1048600078207073723A30782530386C780A0049B5
:104870004353523A30782530386C782048465352AA
:104880003A30782530386C7820434653523A3078A5
:104890002530386C780A00424641523A307825304B
:1048A000386C78204D4D4641523A30782530386C7E
:1048B000780A007874706C6864605C1C1814100CC2
:1048C00008040020496E76616C696420737461632A
:1048D0006B20706F696E74657220283078253038CF
:1048E00078292E0A00203078253038783A20307820
:1048F000253038780A0050616E6963202325640AE8
:0149000000B6
:1049040038403600A384070083057EA40306E0EA4A
:104914002306010088604500FFFFFFFF3840350093
:104924002D40014002846000A384070083057EA417
:104934000306E0EA23060100DC502B0043020005D5
:10494400C3822000FFFFFFFF1947000000000000A2
:0D495400FC08002000000000040900200104
:10496100526164696F5465737441707020336334AC
:10497100633234322B206368657272792047434376
:104981003A202831353A31302E332D323032312E22
:1049910030372D34292031302E332E312032303230
:1049A1003130363231202872656C656173652900BA
:0149B1000005
:020000021000EC
:10FFA80000008001100082FFFDFF58003AFFBFF3F8
:10FFB800FFFFFFFFFFFFFFFFFFFFFFFFFFFFFFFF49
:10FFC800FFFFFFFFFFFFFFFFFFFFFFFFFFFFFFFF39
:10FFD800C50BFEC5FFFFFFFFC5FFFFFFC5C5C5FF7A
:10FFE800C5C5C5FF00000000FFFFFFFFFFFFFFFFC3
:08FFF800FFFFFFFFFFFFFFFF09
:00000001FF
